:0300000002004CAF
:200008000000E2FBEAF2802C0000E0FBEAF08024E6B50202EBF62200E2B50202EBF22200DE
:20002800E0B50202EBF02230F6E0A88220F5D3EAC6F582228B822230F6E6A88220F5D980EE
:01004800CFE8
:0300A5000200490D
:030049000200A80A
:2000A8001200E39000051201131200001200007508FC750901750A80750B06750C009000D6
:1B00C8000075F00012014F75000690000075F0001200009003E812011380D1E2
:2001DF000600FF0901A101150026FF0075089508090082020195080900920201C048454C99
:0401FF004C4F0A0057
:2000E30075A15575A1AA74F855B94406F5B975A10022AE82AF83EE4F601505A105A105A122
:2001030005A105A105A105A11EBEFF011F80E722AE82AF83EE4F60159003E8C007C0061292
:2001230000F5D006D0071EBEFF011F80E722AE82AF8310990280FB8E998E828F83221098FB
:0C0143000280FBAE997F008E828F832229
:06007B00E478FFF6D8FD59
:20014F00AD82AE83AFF08D0D8E0E8F0F850810850911850A12A80BA90C8803890418B8FF91
:20016F000119EB4C60258510828511838512F01201BFFCA38582108583118D828E838FF0A3
:15018F00EC1201A4A3AD82AE8380CE850D82850E83850FF02297
:200059007900E94400601B7A00900203780875A000E493F2A308B8000205A0D9F4DAF27541
:02007900A0FFE6
:1B01A40020F71130F6138883A88220F509F6A8837583002280FEF280F5F0225A
:200081007800E84400600A790075A000E4F309D8FC7808E84400600C7901900000E4F0A376
:0400A100D8FCD9FAB4
:0D004C007581121201DBE58260030200499C
:1C01BF0020F71430F6148883A88220F507E6A88375830022E280F7E49322E0224F
:0401DB007582002207
:00000001FF
