:0300000002004CAF
:100008000000E2FBEAF2802C0000E0FBEAF080242A
:10001800E6B50202EBF62200E2B50202EBF222009C
:10002800E0B50202EBF02230F6E0A88220F5D3EA30
:10003800C6F582228B822230F6E6A88220F5D98086
:01004800CFE8
:0300A5000200490D
:030049000200A80A
:1000A8001200BB53927F439380B2979000C812000E
:1000B800EB80F675A15575A1AA74F855B94406F5F3
:1000C800B975A10022AE82AF83EE4F601505A10578
:1000D800A105A105A105A105A105A11EBEFF011F3E
:1000E80080E722AE82AF83EE4F60159003E8C00729
:1000F800C0061200CDD006D0071EBEFF011F80E744
:1001080022AE82AF8310990280FB8E998E828F83F4
:0F0118002210980280FBAE997F008E828F832287
:06007B00E478FFF6D8FD59
:100059007900E94400601B7A0090012B780075A0B3
:1000690000E493F2A308B8000205A0D9F4DAF27506
:02007900A0FFE6
:100081007800E84400600A790075A000E4F309D81B
:10009100FC7800E84400600C7900900000E4F0A3D3
:0400A100D8FCD9FAB4
:0D004C00758107120127E58260030200495B
:0401270075820022BB
:00000001FF
