:040000000200B63212
:01000B0032C2
:0100130032BA
:01001B0032B2
:0100230032AA
:01002B0032A2
:01003300329A
:01003B003292
:0300430002017C3B
:100048000000E2FBEAF2802C0000E0FBEAF08024EA
:10005800E6B50202EBF62200E2B50202EBF222005C
:10006800E0B50202EBF02230F6E0A88220F5D3EAF0
:10007800C6F582228B822230F6E6A88220F5D98046
:01008800CFA8
:10010F00786D7600786E7600786F7600787076006E
:0B011F0078717600787276000200898B
:030089000206D894
:10012A0075E20053E27F43E22975E30053E2BF53CD
:10013A00D1FB75D18043D1012243E10443E102435B
:10014A00E10143D81FD2EAD2AF227E407F008EEE71
:10015A008FEF7E807F008EE48FE575EBCC75D4122D
:10016A0075D2127E007F008EEC8FED75EA4075DC49
:10017A000222C021C0E0C0F0C082C083C007C0060E
:10018A00C005C004C003C002C001C000C0D075D001
:10019A000020D903020662743F55D9FFFEBE000350
:1001AA0002062BBF02028038BF20030205B4BF211A
:1001BA0002800DBF22028016BF3002803C02066018
:1001CA0075D30074FC55D24402F5D202066075D587
:1001DA000074FC55D44402F5D478727600020660A5
:1001EA0020DE030206607870A6DB7871760074F36D
:1001FA0055D44408F5D4020660AEDB7F00BE08057C
:10020A00BF00028003020584900007E0FE7F009091
:10021A000006E07C004FF508EC4EF5097E009000E0
:10022A0001E0F50A900000E0FD546060137409B51E
:10023A000A077E007F000205887EFF7F000205888C
:10024A00E50A24F5500302057EE50A240B83F582AC
:10025A00E50A240F83F583E4735CAA7E517E7879DC
:10026A007E84A1880503050405030205030305909E
:10027A000003E0FDBD01028012BD0202801CBD0325
:10028A00028026BD22028073020314750D96750E34
:10029A0009750F807C127D008074750DA8750E0992
:1002AA00750F807C227D008065900002E0700F75DA
:1002BA000DEC750E09750F807C047D00805090004E
:1002CA0002E0FBBB010F750D1C750E0A750F807CD1
:1002DA00167D008039900002E0FBBB020F750DFE0F
:1002EA00750E09750F807C1E7D008022750DF075D4
:1002FA000E09750F807C0E7D008013750DCA750E70
:10030A0009750F807C227D0080047CFF7D00C3EC90
:10031A009508ED950950048C088D09AC08AD09C300
:10032A00EC9408ED9400920040067C087D0080045D
:10033A00AC08AD098C068D07850D22850E23850F25
:10034A00248E258F2690000075F000C007C0061283
:10035A0008A6D006D007E508C39EF508E5099FF56B
:10036A0009EE250DF50DEF350EF50E020588900004
:10037A0002E0F508750900020588900000E50CF016
:10038A00AC08AD09C3EC9401ED9400500302058852
:10039A007E017F00020588900002E0F50C020588C4
:1003AA00900000E0541F7032900003E0FC7D009042
:1003BA000002E0FB7A004205EA4204BD0115BC00D6
:1003CA00129009AFE49330E5030205887EFF7F00AF
:1003DA000205887EFF7F00020588900000E0FD5339
:1003EA00051FBD025B900004E0FDBD01028044BD13
:1003FA000202802EBD03028018BD8102802ABD82BE
:10040A00028014BD833374BC55D64402F5D6020566
:10041A008853D67302058874BC55D44402F5D402B5
:10042A00058853D47302058874BC55D24402F5D2A8
:10043A0002058853D2730205887EFF7F0002058871
:10044A007EFF7F00020588900000E0541F704C90E8
:10045A000003E0FC7D00900002E0FB7A004205EA1E
:10046A004204BD012FBC002C9009AFE49330E51D76
:10047A00E5A220E7FB75A15575A1AA75A9C1438715
:10048A000275A15575A1AA75A9000205887EFF7F8C
:10049A00000205887EFF7F00020588900000E0FDCB
:1004AA0053051FBD02028003020556900003E0FCBB
:1004BA007D00900002E0FB7A004205EA4204ED4C1E
:1004CA006003020550900005E0FC7D00900004E006
:1004DA00FB7A004205EA4204BD0105BC00028058CD
:1004EA00BD0205BC0002803CBD0305BC00028020A1
:1004FA00BD8105BC00028036BD8205BC0002801A9F
:10050A00BD833DBC003A74BF55D64403F5D6806E10
:10051A00747F55D6440CF5D6806474BF55D4440311
:10052A00F5D4805A747F55D4440CF5D4805074BFE6
:10053A0055D24403F5D28046747F55D2440CF5D285
:10054A007EFF7F0080387EFF7F0080327EFF7F0043
:10055A00802C900000E4F0900001F0AC08AD09C3D3
:10056A00EC9402ED940040067E027F008010AE08F3
:10057A00AF09800A7EFF7F0080047EFF7F008E0421
:10058A008F05BCFF0CBD0009750AFF75DCCF02069A
:10059A0060C374089CE49D40088EDD75DCC00206C9
:1005AA006075DD0075DCC00206607405B50A02805C
:1005BA00587406B50A63AE08AF09C3EE9408EF94FF
:1005CA0000920040067E087F008004AE08AF0985CD
:1005DA000D22850E23850F248E258F269000007507
:1005EA00F000C007C0061208A6D006D007E508C367
:1005FA009EF508E5099FF509EE250DF50DEF350E77
:10060A00F50E8EDD63DC40804DE5E35480FFE5089E
:10061A00FE4FF5E375DC02803D75DD0075DC028076
:10062A00357409B50A2A30DE2D74FC25DB50199081
:10063A000001E0FF900002E0F518900003E0F519D0
:10064A00751A008F8212080775DD0085DCDC8006CA
:10065A0075DD0085DCDCC2D930D82975DC0275D29B
:10066A001275D41275E300C2DAC2D9C2D8786D768F
:10067A0000786E7600786F760078707600750C00D8
:10068A007872760010DA028023E5DAFF30E220E59C
:10069A00A2FF20E7FA75A15575A1AA75A9C14387DA
:1006AA000275A15575A1AA75A900800375D8FFD056
:1006BA00D0D000D001D002D003D004D005D006D0CB
:1006CA0007D083D082D0F0D0E0D02102008C12086B
:1006DA003A90000512086A1207CD751800751900BC
:1006EA00751A007582FF1208079003E812086A75E6
:1006FA001800751900751A00758200120807900112
:10070A00F412086A7518FF751900751A00758200C7
:10071A001208079003E812086A751800751900751F
:10072A001A007582001208079001F412086A7518F7
:10073A00007519FF751A007582001208079003E800
:10074A0012086A751800751900751A007582001268
:10075A0008079001F412086A12012A1201541201C0
:10076A004375DD0075D30075D5007518FF7519003E
:10077A00751A007582001208079000C812086A7577
:10078A001800751900751A00758200120807E50C21
:10079A0060FC7870E660F77870B60400401C900040
:1007AA0080E0FF900081E0F518900082E0F5199052
:1007BA000083E0F51A8F821208077870760053D406
:0307CA00F380CBEE
:100996001201000200000008C016525500010102B3
:1009A600030109022200010100803209040000014E
:1009B60003000000092111010001222A0007058217
:1009C600030800010600FF0901A10109021500261E
:1009D600FF007508950881020903150026FF0075BA
:1009E6000895089102C0040309040E03760031003D
:1009F6002E0030002E0030001E034A006F006800F3
:100A06006E006E0079003500350032002D0043007F
:100A16006F007200650016034A006F0068006E00E2
:0C0A26006E0079003500350032002E0013
:1007CD005392FE43930122AF827E08EF5480601353
:1007DD00D29000000000000000000000C290000058
:1007ED00008011D290000000C290000000000000B7
:1007FD0000000000EF23FFDED222AF82851882C0F9
:10080D00071207D4D0078F821207D48519820207E9
:10081D00D4C2907E007F008E048F05C3EC94B8ED9A
:10082D00940B5008000EBE00EE0F80EB2275A15503
:10083D0075A1AA74F855B94406F5B975A10022AE93
:10084D0082AF83EE4F601505A105A105A105A10598
:10085D00A105A105A11EBEFF011F80E722AE82AF3B
:10086D0083EE4F60159003E8C007C00612084CD008
:10087D0006D0071EBEFF011F80E722AE82AF831098
:10088D00990280FB8E998E828F832210980280FBB5
:09089D00AE997F008E828F832248
:0600E500E478FFF6D8FDEF
:1008A600AD82AE83AFF08D278E288F2985222A85CB
:1008B600232B85242CA825A9268803890418B8FF8C
:1008C6000119EB4C6025852A82852B83852CF01235
:1008D6000976FCA385822A85832B8D828E838FF0F1
:1008E600EC1208FBA3AD82AE8380CE8527828528D5
:0508F600838529F022BA
:1000C3007900E94400601B7A00900A32780075A039
:1000D30001E493F2A308B8000205A0D9F4DAF2759B
:0200E300A0FF7C
:10008C00C000A88118C0D0B6001B18B64800401597
:10009C00B66F005010C0E0E65407B406005004E6FA
:0A00AC0054F8F6D0E0D0D0D00032B6
:1008FB0020F71130F6138883A88220F509F6A88318
:0B090B007583002280FEF280F5F022D0
:1000EB007800E84400600A790075A001E4F309D8B0
:1000FB00FC7800E84400600C7900900100E4F0A368
:04010B00D8FCD9FA49
:10091600758911758800758B00758D0020B0FD20D6
:10092600B0FA20B0F720B0F420B0F130B0FDD28E8E
:1009360020B0FD30B0FD20B0FD30B0FDC28EE58D9B
:1009460025E0FFE58B2354014FF58DE58D25E0FF6E
:10095600E58B232354014FF58DE58DF4F58DE58D5B
:1009660004F58D858D8B7589217587807598522242
:0D00B600758172120992E5826003020089D3
:1009760020F71430F6148883A88220F507E6A883AA
:1009860075830022E280F7E49322E022758200223A
:00000001FF
